:020000040800F2
:10180000E82B002099190008AF4400085141000856
:10181000AD4400084D220008E94C0008000000001B
:101820000000000000000000000000000119000896
:101830006D2500080000000045190008BB450008A0
:10184000B3190008B3190008B3190008B319000848
:10185000B3190008B3190008B3190008B319000838
:10186000B3190008B3190008B3190008B319000828
:10187000B3190008B3190008B3190008B319000818
:1018800061250008B3190008B3190008B31900084E
:10189000B3190008B3190008B3190008B3190008F8
:1018A000B3190008B3190008B319000875460008F9
:1018B000814600088D46000899460008B3190008C3
:1018C000B3190008B3190008B3190008B3190008C8
:1018D000B3190008B3190008DD4C0008B31900085B
:1018E000B3190008B3190008B3190008DFF80CD0C9
:1018F00000F048FA00480047494F0008E82B002054
:10190000224B19680868B0E8F00F80F30988BFF32C
:101910006F8F4FF0000080F311884EF00D0E70476E
:101920000000000006480068006880F3088862B67E
:1019300061B6BFF34F8FBFF36F8F00DF00BF00BFF3
:1019400008ED00E0EFF30980BFF36F8F0F4B1A68CB
:1019500020E9F00F106008B54FF0500080F31188B7
:10196000BFF34F8FBFF36F8F04F034FC4FF00000D4
:1019700080F31188BDE8084019680868B0E8F00FE6
:1019800080F30988BFF36F8F704700BF7800002095
:10199000EFF305807047000006488047064800477F
:1019A000FEE7FEE7FEE7FEE7FEE7FEE7FEE7FEE70F
:1019B000FEE7FEE729460008ED180008202A04DBB0
:1019C000203A21FA02F00021704721FA02F3D040B8
:1019D000C2F12002914008431946704740EA0103D2
:1019E0009B0703D009E008C9121F08C0042AFAD2D5
:1019F00003E011F8013B00F8013B521EF9D2704799
:101A0000421C10F8011B0029FBD1801A704710B549
:101A1000002200E0521C835C8C5CA34201D1002BAD
:101A2000F8D1D8B2E1B2401A10BD000070B50F4D28
:101A300000B92868002412E00A4602E09E4203D062
:101A4000521C1378002BF9D1DAB2224305D02BB106
:101A500024B1002100F8011B04E00446401C067874
:101A6000002EE9D12860204670BD0000C80000208B
:101A70000FB400B58DB010A909900B9000914FF0F4
:101A8000FF300A9000200C9005480690054807900A
:101A90006A4609A80F9900F047F90DB05DF814FBEC
:101AA000451D0008631D00082DE9FF5F1D464FF02E
:101AB000FF3BD5E9014691465F464FF00008A96912
:101AC0007F1C01988847296A824688470028F6D1FA
:101AD000BAF1FF3F0CD024F4C064002E19DD60067B
:101AE00014D5BAF12B0F09D0BAF12D0F0ED103E0A6
:101AF000584604B0BDE8F09F44F48064A9697F1C97
:101B000001988847761E8246002E02DDBAF1300F1A
:101B100003D0B9F1000F26D032E0A969761E44F453
:101B200000747F1C019888478246002E05DDBAF1BB
:101B3000780F06D0BAF1580F03D0B9F1000F10D0CA
:101B40001EE0B9F1000F02D0B9F1100F18D1A96948
:101B5000761E24F400747F1C01988847824610206A
:101B600002E0082000E00A20814609E008FB09089D
:101B7000A969761E44F400747F1C01988847824648
:101B8000002E05DD4946504600F0BAF80028EDDA8F
:101B9000E96901988847A00502D46FF00100A8E721
:101BA000E00725D1600613D5600502D5C8F1000015
:101BB00000E0404629680A1D2A600968220501D50F
:101BC000087015E0220701D5088011E008600FE0D9
:101BD0002868011D29600068210502D580F8008071
:101BE00006E0210702D5A0F8008001E0C0F80080DF
:101BF00038467EE72DE9FF5FD2E901A74FF00008E4
:101C0000916999461446DDF838B0464601988847F0
:101C1000054659EA0B0005D009E0A169761C019838
:101C200088470546216A284688470028F5D1681C60
:101C300003D05FEACA7005D015E04FF0FF3004B062
:101C4000BDE8F09F2068011D2160D0F800800AE007
:101C50005FEACA7001D108F8015BA169761C7F1E9A
:101C6000019888470546002F1ADD681C18D0B9F185
:101C7000000F0DD0E81705EBD060421120F01F00D7
:101C800059F822102A1A012090400142E0D107E0C1
:101C9000BBF1000FDCD1216A284688470028D7D045
:101CA000E16901988847BBF1000F07D1002E05DDDF
:101CB0005FEACA7002D1002188F80010A068B8421B
:101CC00003DDBBF1000F03D017B16FF00100B6E7E1
:101CD0003046B4E730B50B460146002020220124EF
:101CE00009E021FA02F59D4205D303FA02F5491BEA
:101CF00004FA02F52844151EA2F10102F1DC30BD00
:101D00003A2800D2303820F02002412A01D3A2F133
:101D10003700884201D34FF0FF307047026811440A
:101D20001378016018467047D16004495161044935
:101D3000116200211161114600F03CB81D1D000820
:101D4000A91D0008426842B1016811F8013B23B1A6
:101D5000521EC0E90012184670470121C160881E5A
:101D6000704742685AB1C368016843B983688B42BF
:101D700005D0491E521CC0E90012002070474FF0E8
:101D8000FF307047064C074D06E0E06840F0010365
:101D900094E8070098471034AC42F6D3FFF7AAFD49
:101DA000F06E0008106F0008C0B24FF4F05100F060
:101DB00097B900002DE9F34F8BB04FF0000801F107
:101DC0000C000C464FF0010B46460DF1080A01903D
:101DD0006269012101989047051E2DD0252D2CD038
:101DE000216A8847C0B16269012101989047216A40
:101DF00088470028F7D1411E62690198904700E0AA
:101E0000761CA1690B988847216A88470028F7D17A
:101E1000E1690B988847DBE7A1690B98884707467B
:101E2000A84201D1761CD3E7E1690B9888477F1C53
:101E300002D1B8F1000F6FD046E1002762693D463C
:101E40003946019890472A2804D1626901210198F6
:101E500090470125DFF8849262690121019890473B
:101E6000A0F130010A290AD24F45E5DC07EB8701D2
:101E700000EB4107303FDFD445F01005ECE7E90601
:101E800001D46FF000476C280AD04C2814D0682881
:101E900015D06A280DD074281CD07A281AD01DE0DD
:101EA00062690121019890476C2802D045F0040531
:101EB00014E045F002050DE045F020050AE06269F6
:101EC000012101989047682802D045F0080505E0F7
:101ED00045F400656269012101989047C4E9015702
:101EE00065283DD019DC58287AD00CDC452837D03D
:101EF00004DC252826D0412831D131E046282FD0D6
:101F000047282CD12CE05B2877D0612828D0632883
:101F10007CD0642823D15AE0D0E06F2848D008DC78
:101F200066281DD067281BD0692821D06E2816D1BD
:101F300027E0702845D0732868D0752847D07828C6
:101F40000DD14DE0A1690B988847054625283FF43F
:101F500069AFE1690B9888476D1C3FF46AAFB3E045
:101F600023466A466FF001000B99AFF300809EE0B4
:101F700045F040006060A80723464FF0000236D4C9
:101F80003EE0E8077FF447AF2068011D216000684C
:101F9000290501D506701BE7290701D5068017E73B
:101FA000A90703D5F117C0E9006111E706600FE743
:101FB00045F040006060A80723464FF0080216D4A1
:101FC0001EE040F60E0125EA0100606016E045F0D3
:101FD00040006060A80723464FF00A0207D40FE0D4
:101FE00045F040006060A80708D5234610226FF036
:101FF00001000B99AFF3008059E007E0234610225F
:102000006FF001000B99FFF74FFD50E04FF0000912
:102010004F464B46632802D05B2806D040E0E806D6
:1020200001D40120A06001273AE0626901210198F2
:1020300090475E2805D14FF0010962694946019831
:102040009047216939B900210A46534643F82120B7
:10205000491C0829FADBB0B3216969B9C11700EB43
:10206000D16253110AEB830122F01F02821A012070
:102070000B68904003430B6062690121019890470F
:102080005D28E8D1B9F1000F09D00020514651F880
:102090002020D24341F82020401C0828F7DB02AB67
:1020A000224600976FF001000B99FFF7A3FD00286F
:1020B0000CDA401C08D1BBF1000F05D04FF0FF3007
:1020C0000DB0BDE8F08FFFE74046F9E7E90701D121
:1020D00008F1010806444FF0000B79E6CCCCCC0C9B
:1020E0007F2801D9002208E0064A02EB5002C0070F
:1020F000127800D1120902F00F020120904008402E
:10210000704700006C6E000870B51249002008800E
:102110000146114801F03DFB04210F4801F039FB55
:1021200000244FF4FA660D4D05E00A2003F0CEF8C6
:10213000641CB44202DA28680128F6D0002106485F
:1021400001F04DFB0421044801F049FB024890F8DE
:102150003D0070BD04000020300D00202000002054
:1021600070B5044600680B4690422ED1257D0022B2
:10217000032185B1012D28D1E58A5E88B54225D19C
:102180002175D4E9020101F0A1FDD4E90001BDE807
:10219000704001F0A5BCE58A5E88B542F0D00068C9
:1021A00042620121204600F03EF8E08A03EB400045
:1021B000818820680268606820F003003430115084
:1021C000E08A401CE0820120207570BD00684262F8
:1021D0000021204600F027F8E08A03EB40008188C8
:1021E00020680368606820F0030034301950E08AEA
:1021F000401CE082227570BD10B5044601610220CA
:1022000020750121204600F00EF8D4E9020101F00A
:102210002DFDD4E9000101F033FC0020E082012013
:102220002075002010BD49B1012901D0012070475F
:1022300080680068816921F0200104E080680068FE
:10224000816941F02001816100207047FEE70000B4
:1022500010B5084CE06B03F0FFF800200146206247
:10226000054801F0BCFABDE810400421024801F025
:10227000B6BA000000000020300D0020974C984EA8
:1022800000274FF0070A4FF0050B4FF480794FF409
:102290000078206A09287AD2DFE800F0956C2C05D6
:1022A0007A9D4CBC100001224946304600F0BDFC2E
:1022B00000224146304600F0B8FCC9E00122454604
:1022C0004146304600F0B1FC00224946304600F05D
:1022D000ACFC4FF47A7002F0F9FF01224946304617
:1022E00000F0A3FC00222946304600F09EFC4FF48B
:1022F0007A7049E000224946304600F096FC0025FD
:10230000474601223946304600F08FFC642002F037
:10231000DDFF00223946304600F087FC642002F0E1
:10232000D5FF6D1C042DECDB4FF47A7002F0CEFF6C
:1023300000274AE000224946304600F076FC00259E
:10234000474601223946304600F06FFC642002F017
:10235000BDFF00223946304600F067FC642002F0E1
:10236000B5FF6D1C042DECDB4FF47A7002F0AEFF6C
:1023700001272DE000224146304600F056FC494638
:10238000304600F04EFC962002F0A0FF60E065E0D1
:1023900000224146304600F048FC01224D464946A5
:1023A000304600F042FC4FF4167002F08FFF00221E
:1023B0002946304600F039FC4FF4167002F086FFD3
:1023C0000020206244E0012F02D0C4F820B03FE09A
:1023D000C4F820A03CE000224946304600F025FC2D
:1023E000012245464146304600F01FFCC82002F05D
:1023F0006DFF00222946304600F017FC002505E05D
:10240000322002F063FF6D1C642D21DA206A05285A
:10241000F6D01DE000224146304600F006FC0122C5
:102420004D464946304600F000FCC82002F04EFF01
:1024300000222946304600F0F8FB002505E0322056
:1024400002F044FF6D1C642D02DA206A0728F6D0E2
:102450008021244800F0E0FB10B134E0002223E7A3
:1024600000250FE001224946304600F0DEFB012244
:102470004146304600F0D9FBC82002F027FF6D1C12
:102480000A2D05DA8021174800F0C6FB0028E9D0A4
:1024900000224946304600F0C8FB00224146304643
:1024A00000F0C3FB0A2D0EDB4FF4FA6002F00EFFC2
:1024B00064230F220CA1104801F0ECFD642002F00F
:1024C00005FF02F005F80A2002F000FF034901228F
:1024D000891C094801F09CFDDBE60000000000209B
:1024E000000C0140000801404073657474696E6718
:1024F0005F72657365742E00F00D002030B51548CD
:1025000001881548491EB1F5FF7F00D9002141809F
:1025100040F2FF110180002105E000BF00EB410205
:10252000491CD388938042888A42F7DC00210B4BF8
:102530000BE000BF01EA0302012A05D100EB4102D2
:1025400094885588641B9480491C42888A42F1DC37
:1025500030BD000004000020CC04002001000080F9
:10256000014800F0DBB80000300E0020704700008A
:1025700006490020C8610648016941F00401016173
:10258000016941F04001016170470000B80E002070
:1025900000200240064A0021D16106490A6942F042
:1025A00002020A614861086940F040000861704712
:1025B000B80E002000200240044B0022DA61044AD9
:1025C000136943F00103136101807047B80E0020C6
:1025D0000020024014480022C168CB06134904D5EC
:1025E000CA6942F00202CA611022C3685B0705D5BE
:1025F000CB6943F00103CB6142F00402C369DB07FE
:1026000007D0CB6943F00403CB61C16921F001011C
:10261000C161A2F58071013901D0C2607047C16902
:1026200021F00101C161704700200240B80E002076
:1026300070B5054600F0FEFA0646114C09E0681C2C
:1026400007D025B100F0F6FA801BA84201D903207B
:1026500070BDE068C007F2D1E068800601D5202097
:10266000E060E068C00605D4E069C00702D1E06818
:10267000400703D5FFF7AEFF012070BD002070BDFD
:102680000020024010B590F821100024022903D048
:102690000421816301243DE001680A6822F00E02F2
:1026A0000A6001680A6822F001020A601A4A016899
:1026B000914201D1012121E0174A1432914201D106
:1026C00010211BE0144A2832914201D1891515E0EE
:1026D000114A3C32914201D189140FE00E4A503226
:1026E000914202D14FF4803108E00B4A64329142AA
:1026F00002D14FF4801101E04FF08071064A083A90
:102700005160012180F82110002180F82010416BD8
:1027100001B18847204610BD080002402DE9F05F56
:10272000C16B0C6801680B68D0F840C0042202FA43
:102730000CF2494DDFF824A1494E4A4FDFF828B189
:10274000DFF828E122422CD05A072AD50A689206DF
:1027500003D40A6822F004020A600168A94201D188
:10276000042219E0514501D1402215E0B14202D1C5
:102770004FF4806210E0B94202D14FF480420BE086
:10278000594502D14FF4802206E0714502D14FF441
:10279000800201E04FF080622F4908394A60C16A27
:1027A0003BE04FF0020808FA0CF818EA040F4FF06B
:1027B00000094FF0010235D05FEA837832D50B680B
:1027C0009B0605D40B6823F00A030B6080F82120D8
:1027D0000168A94201D1022219E0514501D120220C
:1027E00015E0B14202D14FF4007210E0B94202D1BB
:1027F0004FF400520BE0594502D14FF4003206E08D
:10280000714502D14FF4001201E04FF000721249FD
:1028100008394A6080F82090816A00291AD0BDE802
:10282000F05F0847082505FA0CF5254212D01B0772
:1028300010D50B6823F00E030B6090F84010C36BAB
:1028400002FA01F15960826380F8212080F820901B
:10285000016BE2E7BDE8F09F080002401C00024067
:102860003000024044000240580002406C00024028
:1028700030B548B308C8154914221944B1FBF2F128
:102880008900C16312498163022141771A6843F6C6
:10289000F0718A43D0E900142143D0E902452C436A
:1028A000214304692143446921438469214311433D
:1028B0001960002141628162C162016341630122AA
:1028C00042770177084630BD012030BDF8FFFDBFDB
:1028D0000000024070B5044600F0ACF90546601CEB
:1028E00002D004480078044400F0A4F9401BA04240
:1028F000FAD370BD440000202DE9F0470546264874
:102900000F460126017E01290FD001218146017663
:102910002868DFF888804CF25034022808D0A2469C
:102920002046FFF785FEA8B131E00220BDE8F08720
:102930002046FFF77DFE08BB0120FFF719FE204669
:10294000FFF776FED8F81010064621F00401C8F80B
:1029500010101CE04FF0FF303860AC6811E02046EA
:10296000FFF718FE5046FFF763FED8F81010060078
:1029700021F00201C8F8101001D03C6007E004F516
:102980008064D5E9020100EB8120A042E7D8002154
:1029900089F818103046C9E7B80E00200020024020
:1029A0000348016941F08001016100207047000087
:1029B000002002402DE9F05F07461C4888460024AD
:1029C000017E15461E46012909D001218146017666
:1029D0004CF2503A5046FFF72BFE18B122E002208D
:1029E000BDE8F09F012F02D0022F00D00427D3466C
:1029F000DFF83CA0220128463146FEF7DFFF81B216
:102A000008EB4400FFF7D8FD5846FFF711FEDAF84F
:102A1000102022F00102CAF8102018B9641CE4B298
:102A2000BC42E7D3002289F81820D9E7B80E00206D
:102A300000200240064900200A69120607D5054A0F
:102A40004A60054A4A600969090600D501207047B5
:102A50000020024023016745AB89EFCD2DE9F84FF7
:102A6000DFF890A100220AF1040B144601274FF071
:102A70000F090BF1040E00BF0B6807FA04F52B4099
:102A8000AB4274D1DFF870C14E68A6EB0C08664506
:102A90002BD00DDC032E34D005DC36B3012E19D03B
:102AA000022E2FD11BE0112E16D0122E2AD119E0A2
:102AB000B8F5881F19D006DCB8F5803F15D0B8F5F9
:102AC000801F1FD111E0B8F5001F0ED0B8F5041F0C
:102AD00018D10AE0CA6815E0CA68121D12E0CA6877
:102AE00008320FE0CA680C320CE08A682AB1012A69
:102AF0004FF0080203D0456104E0042202E00561C2
:102B000000E00022FF2B01D8064601E000F1040698
:102B10004FEA840501D9A5F12005D6F800C009FACD
:102B200005F82CEA080C02FA05F54CEA050CC6F883
:102B300000C04D68ED0057D5304DAE6946F0010636
:102B4000AE61AD6924F0030605F0010500952C4D3A
:102B500006EB050CDCF80850A6074FEA167809FAD0
:102B600008F6B543274EB04202D1002610E03BE004
:102B7000254EB04201D101260AE0244EB04201D1D7
:102B8000022605E0224EB04201D1032600E00426D1
:102B900006FA08F62E43CCF808604D68DAF80060B3
:102BA000ED03554601D51E4300E09E432E604D685F
:102BB000DBF80060AD035D4601D51E4300E09E4397
:102BC0002E604D68DEF80060ED02754601D51E43AB
:102BD00000E09E432E604D68AD020E4D2E6801D57B
:102BE0001E4300E09E432E60641C102CFFF444AF93
:102BF000BDE8F88F000401400000111000100240F1
:102C00000000014000080140000C0140001001409C
:102C1000001401400C0401408068084000D00120ED
:102C20007047C2684A40C26070470AB1016170478C
:102C30000904FBE701488068704700004400002059
:102C40000248816802781144816070474400002086
:102C5000074810B5016841F010010160032000F041
:102C6000B7F8002000F006F800F03EF8002010BD94
:102C70000020024000B5014687B000221E2000F06F
:102C800087F81E2000F078F81348C16941F004016C
:102C9000C161C06905A900F004000690684600F013
:102CA00053F900F077F90D494000B0FBF1F10D4800
:102CB0000B4A491E0260416040F2E7320021C0E940
:102CC0000321816000F088FB10B1012007B000BD36
:102CD000044800F0EBFBF9E70010024040420F000F
:102CE00000080040740E0020214808B5816941F0B9
:102CF00001018161816901F001010091C16941F027
:102D00008051C161C06900F080500090032000F044
:102D10005FF8002211466FF00B0000F039F8002236
:102D200011466FF00A0000F033F8002211466FF0F0
:102D3000090000F02DF800221146501F00F028F87D
:102D400000221146101F00F023F800220F21901ED0
:102D500000F01EF800220F21501E00F019F805485F
:102D6000416821F0E06141F00071416008BD000060
:102D7000001002400000014000F01F0201219140BC
:102D80004009800000F1E020C0F800117047000009
:102D9000F0B40E4B1B680C46C3F30223C3F10705C6
:102DA000042D00D90425191D072901D2002300E0B4
:102DB000DB1E012606FA05F1491E214099409E407E
:102DC000761E16403143F0BC01F072BB0CED00E002
:102DD000064900F0070208684FF6FF03184040EA72
:102DE0000220034A10430860704700000CED00E029
:102DF0000000FA052DE9F047DFF83C8105460E4654
:102E0000D8F8000000F00700B0420CD2D8F800104B
:102E100021F007013143C8F80010D8F8000000F095
:102E20000700B04263D12878444C800705D560681C
:102E3000A96820F0F000084360602878C00745D0FA
:102E40006868012816D02168022816D08907002951
:102E50004DDA616821F0030101436160FFF7EAFE8A
:102E60006968074641F2883001290FD0022981465E
:102E700019D027E021688903E9E78901E7E700BF66
:102E8000FFF7D8FEC11B494501D918E081466068AB
:102E9000C0F381000128F3D118E000BFFFF7CAFE9C
:102EA000C11B49450BD86068C0F381000228F5D1E9
:102EB0000CE000BFFFF7BEFEC11B494502D903204D
:102EC000BDE8F087606810F00C0FF3D1D8F800105F
:102ED000404601F00701B1420BD9016821F007011A
:102EE00031430160006800F00700B04201D00120CA
:102EF000E6E72878400705D56068E96820F4E060D7
:102F0000084360602878000706D56068296920F4C6
:102F1000605040EAC100606000F05CF86168084AF7
:102F2000C1F30311515CC840064908600020FFF757
:102F3000A1FE0020C4E70000002002400010024073
:102F4000546E0008500000200F2202600C4A5368A3
:102F500003F003034360536803F0F0038360536896
:102F600003F4E063C36052684FF4E06303EAD20203
:102F700002610448006800F0070008607047000024
:102F80000010024000200240014800687047000025
:102F9000500000200448054900684968044AC1F30C
:102FA0000221515CC84070475000002000100240D0
:102FB000646E00080448054900684968044AC1F382
:102FC000C221515CC84070475000002000100240F0
:102FD000646E000812A185B00FC98DE80F0014A01F
:102FE000144A006804905168134801F00C03042B44
:102FF00010D0082B0ED1C1F38343C9031DF8030081
:103000000AD5516804AAC1F34041515C0A4A5043B1
:10301000B0FBF1F005B0704708494843FAE70000FB
:1030200002030405060708090A0B0C0D0E0F101009
:10303000010200000010024000127A0000093D0069
:103040002DE9F84F04460078B94DC00748D06868AC
:10305000C0F38100012807D06868C0F3810002280E
:1030600009D16868C00306D52868800338D5606830
:1030700000286FD034E06068B0F5803F0BD010B10D
:10308000B0F5A02F11D0286820F48030286028687F
:1030900020F4802002E0286840F4803028606068D6
:1030A00088B1FFF7C7FD064609E0286840F4802094
:1030B0002860F0E7FFF7BEFD801B642875D82868FC
:1030C0008003F7D50CE0FFF7B5FD064605E000BF2D
:1030D000FFF7B0FD801B6428F0D828688003F7D480
:1030E0002078944E80074FF001094FF000083BD53F
:1030F000686810F00C0F07D06868C0F381000228E0
:1031000009D16868C00306D42868800714D52069EF
:1031100001281FD110E02069B0B1C6F80090FFF778
:1031200089FD074605E000BFFFF784FDC01B0228AC
:10313000C4D828688007F7D52868616920F0F800AE
:1031400040EAC10028600FE0C6F80080FFF772FD7A
:10315000074606E0E9E000BFFFF76CFDC01B022850
:1031600023D828688007F7D4207800072CD5724828
:10317000A169D9B1C0F80090FFF75CFD074604E0F3
:10318000FFF758FDC01B02280FD8686A8007F7D5E3
:103190006A484FF4FA510068B0FBF1F0009000BFAC
:1031A0000098411E0091FAD20EE080E0C0F8008045
:1031B000FFF740FD074604E0FFF73CFDC01B022877
:1031C00075D8686A8007F7D42078400760D5E86929
:1031D0000027C00008D4E86940F08050E861E86941
:1031E000012700F08050009055480168C90513D4AC
:1031F0000168834641F480710160FFF71BFD824640
:1032000006E000BFFFF716FDA0EB0A0064284ED8C9
:10321000DBF80000C005F5D5E06801280AD008B148
:10322000052813D0286A20F001002862286A20F0BF
:10323000040002E0286A40F001002862E06841F2E0
:10324000883B98B1FFF7F6FC82460BE0286A40F015
:1032500004002862EEE700BFFFF7ECFCA0EB0A01D8
:1032600059455AD8286A8007F6D50CE0FFF7E2FCEA
:10327000824605E0FFF7DEFCA0EB0A0159454CD879
:10328000286A8007F6D41FB1E86920F08050E86111
:10329000E06988B36968C1F38101022945D0022839
:1032A000C6F8608004D0FFF7C5FC044638E034E07F
:1032B000FFF7C0FC074604E0FFF7BCFCC01B022878
:1032C0002BD828688001F7D4206AB0F5803F05D15B
:1032D0006868A16820F4003008436860D4E90801F8
:1032E0000843696821F4741108436860C6F8609067
:1032F000FFF7A0FC044606E015E000BFFFF79AFCCC
:10330000001B022809D828688001F7D50BE000BF10
:10331000FFF790FC001B022802D90320BDE8F88FBC
:1033200028688001F4D40020F8E70120F6E70000C7
:10333000001002400000424280044242500000203F
:10334000007000404FF0E0210428086903D020F00D
:1033500004000861704740F00400FAE710B5401E11
:10336000B0F1807F01D3012010BD4FF0E0246061F7
:103370000F21601701F09CF80020A0610720206158
:10338000002010BD7047704730B590F83C20012AEE
:1033900020D0012280F83C20022380F83D300368D1
:1033A0005C6824F070045C6003685C680D682C4302
:1033B0005C6003689C6824F080049C6003689C68DF
:1033C00049680C439C6080F83D20002180F83C1047
:1033D000084630BD022030BD10B5040003D094F87B
:1033E0003D0010B107E0012010BD002084F83C0032
:1033F000204600F00DF8022084F83D00211D2068D1
:1034000001F050F9012084F83D00002010BD0000BB
:1034100000B5224A0168224885B0914217D18169DE
:1034200041F4006181618069694600F400600490A4
:10343000901500900020019002901A48FFF70EFBB3
:10344000002205211B20FFF7A3FC1B2022E0B1F185
:10345000804F11D0144A91421ED1C16941F002013E
:10346000C161C069002200F00200049005211D2006
:10347000FFF78EFC1D200DE0C16941F00101C16123
:10348000C069002200F00100049005211C20FFF714
:103490007FFC1C20FFF770FC05B000BD002C014034
:1034A0000010024000080140000400400168CA68A2
:1034B00042F00102CA600068016841F00101016048
:1034C0000020704770B5044690F83C00012817D0E2
:1034D000012584F83C50022084F83D002068826871
:1034E00022F0770222F47F4282600868502837D0A9
:1034F0000DDC202859D005DC88B3102841D151E0DB
:10350000022070BD302853D040283AD13FE06028D7
:103510002ED070280BD0B0F5805F03D0B0F5005FDF
:103520002FD110E02068816821F0070115E0CB68F9
:10353000D1E90121206801F0F6F82168886840F09F
:10354000770088601DE0CB68D1E90121206801F097
:10355000EAF82068816841F48041816011E01EE052
:10356000CA684968206801F0D1F95021206806E056
:10357000CA684968206801F007FA6021206801F0F4
:10358000DCF884F83D50002084F83C0070BDCA6827
:103590004968206801F0BAF940212068EFE700216E
:1035A0002068ECE710212068E9E720212068E6E7A1
:1035B00030212068E3E7000070B51E4C0646E16844
:1035C000E06B01F01BFF307F1B4D012809D100216A
:1035D0001A4800F0C5FBA18805EB4102491C908008
:1035E000A180307F022809D10421144800F0B8FBE3
:1035F000A18805EB4102491C9080A180A0884FF46E
:103600000076B04214D300210C4800F0E8F8042101
:103610000A4800F0E4F800212162A1804FEA01008D
:1036200005EB4002401C9180B042F9DB0120207084
:1036300070BD000000000020CC040020300D0020F0
:103640002DE9F041044690F83C000D4601283BD09E
:10365000012684F83C60022084F83D009AB3042AD5
:1036600044D02068082A53D0D5E90027E968036AC6
:1036700023F480530362D0F81CC0036A2CF4407C0E
:103680004CEA07274FF6FF7C27F470470CEA01311C
:103690003943770323F4005307EA02321A43C16126
:1036A00002622068C16921F44061C1612068C1697A
:1036B000AA6841EA0221C16184F83D60002084F8D3
:1036C0003C00BDE8F08101E00220FAE7D5E90012F4
:1036D000EB68206801F02CF92068816921F00C0169
:1036E000816120688169AA6811430FE0D5E9001261
:1036F000EB68206801F05AF92068816921F4406183
:10370000816120688169AA6841EA02218161D3E769
:10371000D5E9002C2F7B016A21F480710162C16917
:10372000036A21F0030141EA0C0121F0F00C390792
:103730004FF420674CEA116123F4206307EA022268
:103740001A43C16102622068C16921F00C01C161A4
:103750002068C169AA681143ADE710B5040003D021
:1037600094F83D0010B107E0012010BD002084F85E
:103770003C00204600F00CF8022084F83D00211D9A
:10378000206800F08FFF012084F83D00002010BD6C
:10379000704710B50268044631B1042908D00829E1
:1037A00015D00C2908D116E0D06840F0020002E0E4
:1037B000D06840F00400D0600122206800F0A8FF2B
:1037C0002068016841F001010160002010BDD0684F
:1037D00040F00800EFE7D06840F01000EBE710B5CC
:1037E0000268044631B1042908D008291ED00C29EA
:1037F00008D11FE0D06820F0020002E0D06820F07D
:103800000400D0600022206800F082FF2068016A76
:1038100041F21112114207D1016A9210114203D1F3
:10382000016821F001010160002010BDD06820F086
:103830000800E6E7D06820F01000E2E770B5044623
:10384000006801694FF00005C943890715D4C168B4
:10385000C943890711D4E91E01610120207720683E
:1038600080698007204602D0FFF7A6FE04E000F042
:10387000E3F8204600F0F8F9257720680169C9438C
:10388000490717D4C168C943490713D46FF004012D
:103890000161022020772068806910F4407F204673
:1038A00002D0FFF789FE04E000F0C6F8204600F0E1
:1038B000DBF9257720680169C943090716D4C16877
:1038C000C943090712D46FF0080101610420207771
:1038D0002068C0698007204602D0FFF76DFE04E033
:1038E00000F0AAF8204600F0BFF9257720680169AA
:1038F000C943C90617D4C168C943C90613D46FF0B8
:1039000010010161082020772068C06910F4407F11
:10391000204602D0FFF750FE04E000F08DF820466C
:1039200000F0A2F9257720680169C943C90708D1C9
:10393000C168C943C90704D1891E0161204600F04E
:1039400005FA20680169C943090609D4C168C94359
:10395000090605D46FF0800101612046FFF712FDD2
:1039600020680169C943490609D4C168C9434906A9
:1039700005D46FF040010161204600F034FA206860
:103980000169C94389060BD4C168C943890607D4B4
:103990006FF0200101612046BDE87040FFF7F3BCE5
:1039A00070BD00001FB50068B0F1804F12D14FF418
:1039B0000040009002200190039069460648FFF7FE
:1039C0004DF80648416821F4407141F0E06141F44E
:1039D000807141601FBD00000008014000000140EF
:1039E00070B5044690F83C0001280DD0012584F8FC
:1039F0003C50022084F83D0042B1042A0AD0082A33
:103A00000CD00C2A11D10DE0022070BD206800F00E
:103A10009DFE0AE0206800F0C1FE06E0206800F08C
:103A2000E9FE02E0206800F011FF84F83D5000201C
:103A300084F83C0070BD0000024902460148096953
:103A4000FEF78EBBD408002010B5040003D094F814
:103A50003D0010B107E0012010BD002084F83C00BB
:103A6000204600F00CF8022084F83D00211D20685B
:103A700000F018FE012084F83D00002010BD7047C2
:103A800010B50268044631B1042908D008291DD0B8
:103A90000C2908D11EE0D06840F0020002E0D06896
:103AA00040F00400D0600122206800F031FE0B4994
:103AB0002068884203D1416C41F400414164206890
:103AC000016841F001010160002010BDD06840F0A4
:103AD0000800E7E7D06840F01000E3E7002C014061
:103AE00010B50268044631B1042908D008292CD049
:103AF0000C2908D12DE0D06820F0020002E0D06847
:103B000020F00400D0600022206800F001FE134B7A
:103B100041F2111220689110984209D1036A1342B0
:103B200006D1036A0B4203D1436C23F40043436480
:103B30002068036A134206D1026A0A4203D101686F
:103B400021F001010160002010BDD06820F00800C4
:103B5000D8E7D06820F01000D4E70000002C014026
:103B600070B5044690F83C000D4601280DD00126A2
:103B700084F83C60022084F83D0042B1042A18D049
:103B8000082A2AD00C2A4DD139E0022070BD2068C5
:103B900000F0DCFD2068816941F008018161206846
:103BA000816921F004018161206881692A691143DA
:103BB00011E0206800F0F2FD2068816941F40061A5
:103BC00081612068816921F4806181612068816957
:103BD0002A6941EA0221816124E0206800F00AFE9E
:103BE0002068C16941F00801C1612068C16921F004
:103BF0000401C1612068C1692A69114311E020688C
:103C000000F024FE2068C16941F40061C1612068B0
:103C1000C16921F48061C1612068C1692A6941EAF2
:103C20000221C16184F83D60002084F83C0070BD31
:103C300010B5040003D094F83D0010B107E0012056
:103C400010BD002084F83C00204600F00CF8022053
:103C500084F83D00211D206800F024FD012084F837
:103C60003D00002010BD70477047000010B502688D
:103C7000044631B1042908D008291DD00C2908D1E7
:103C80001EE0D06840F0020002E0D06840F004007E
:103C9000D0600122206800F03BFD0B49206888427B
:103CA00003D1416C41F4004141642068016841F056
:103CB00001010160002010BDD06840F00800E7E776
:103CC000D06840F01000E3E7002C014010B5026816
:103CD000044631B1042908D008292CD00C2908D178
:103CE0002DE0D06820F0020002E0D06820F004004F
:103CF000D0600022206800F00BFD134B41F211123E
:103D000020689110984209D1036A134206D1036AD0
:103D10000B4203D1436C23F4004343642068036ADD
:103D2000134206D1026A0A4203D1016821F001015F
:103D30000160002010BDD06820F00800D8E7D068EE
:103D400020F01000D4E70000002C01400068034977
:103D5000884201D1FEF774BF7047000000080040A0
:103D600090F83C300022012B0AD0012380F83C302F
:103D700041B1042909D008290AD00C290DD10AE043
:103D80000220704701684A6B07E001688A6B04E013
:103D90000168CA6B01E001680A6C002180F83C10E0
:103DA0001046704770B5044690F83C00012818D0C2
:103DB000012584F83C50022084F83D00204600F0A4
:103DC00067FD2068C16821F04001C1602068C168BA
:103DD00021F48041C16084F83D50002084F83C000B
:103DE00070BD022070BD70477047000070B502685A
:103DF00004461068D168536910F00F0F50D003F0DB
:103E0000010501F4907635435DD0C20705D0CA059F
:103E100003D5E26B42F00102E263420705D5DA07FF
:103E200003D0E26B42F00202E263820705D5DA07B3
:103E300003D0E26B42F00402E263020705D5DA0721
:103E400003D0E26B42F00802E263E26B002A33D057
:103E5000800604D5880602D5204600F0D8FD2068EB
:103E60004069E16BC0F38010090700D428B32046F5
:103E700000F0BFFD2068416949061AD5416921F06B
:103E800040014161606BA0B11B494163606BFEF76B
:103E9000F9FB002810D0606B416BBDE8704008470B
:103EA000830610D58B060ED52046BDE8704000F085
:103EB000AEBD2046FFF798FF70BD2046FFF794FF88
:103EC0000020E06370BD030606D50B0604D520462E
:103ED000BDE8704000F09EBE4006F3D54806F1D51F
:103EE000D168204621F04001D160202184F83910AA
:103EF00000F02DF970BD0000E349000870B5040022
:103F000004D094F83900002510B106E0012070BDFE
:103F100084F83850204600F023F8242084F8390033
:103F20002068C16821F40051C160204600F0BAFD4C
:103F30002068016921F4904101612068416921F004
:103F40002A0141612068C16841F40051C160E56304
:103F5000202084F8390084F83A00002070BD000069
:103F600070B506460068214986B088423CD1204899
:103F7000C16941F40031C161C0691E4C00F40030D8
:103F800004900420009002200190032003906946D1
:103F90002046FEF763FD00250820CDE900056946AF
:103FA00020460295FEF75AFD144C1348C4E900055B
:103FB0008020C4E9025020202561C4E905504FF457
:103FC0004050E0612046FEF753FC18B179210CA067
:103FD00000F08BFE74630022052126206662FEF746
:103FE000D7FE2620FEF7C8FE06B070BD0044004094
:103FF00000100240000801406C000240300E00201A
:104000002E2E2F5372632F75736172742E6300000E
:1040100090F83A30202B22D1F9B1F2B190F8383033
:10402000012B1CD081628285C2850021C1632222BE
:1040300080F83A2080F838100168CA6842F480722B
:10404000CA6001684A6942F001024A610068C168B9
:1040500041F02001C160002070470120704702201C
:10406000704700000848094B811E02780889B0F5A6
:10407000FF7F1A5401D8401C00E000200881012273
:1040800001490348FFF7C4BF02000020300B0020A5
:10409000F00D00202DE9F843044690F839001F4642
:1040A00016460D46202850D1A5B19EB194F838008F
:1040B00001284AD0012084F838004FF00008C4F8E5
:1040C0003C80212084F83900FEF7B4FDA6848146A7
:1040D000E68426E00120BDE8F883E08C401EE08401
:1040E000A0684B46B0F5805F4FF000024FF08001B2
:1040F0002046009703D000F0BEFDE8B90DE000F0C7
:10410000BAFDC8B928882168C0F308004860206952
:1041100008B16D1C05E0AD1C03E0216815F8010B2A
:104120004860E08C0028D8D14B4600224021204630
:10413000009700F0A0FD08B10320CCE7202084F810
:10414000390084F838800020C5E70220C3E77047B3
:10415000FEE70000094808B5416941F001014161ED
:104160004069002200F00100009005211020FEF7B8
:104170000FFEBDE808401020FEF7FEBD0010024013
:1041800000B585B0142206496846FDF727FC0021DA
:10419000684601F00AF90349086005B000BD000057
:1041A000406E00084000002030B51E4885B081698F
:1041B00041F020018161816901F020010491816950
:1041C00041F004018161816901F004010491816978
:1041D00041F0080181618069134D00F008000490EE
:1041E000012202212846FEF720FD00224FF44071F3
:1041F0002846FEF71AFD00248020CDE90004694618
:104200000A480294FEF72AFC40F202300090012096
:10421000CDE901040220039069462846FEF71EFC02
:1042200005B030BD00100240000C01400008014004
:1042300030B533488FB03149016063210024C0E9B3
:1042400001144FF6FF71C0E9031444618461FFF764
:10425000C3F818B150212BA000F047FD4FF4805057
:10426000099009A92648FFF72DF918B1562125A074
:1042700000F03BFD2248FFF770FA18B15B2121A046
:1042800000F033FD0420049002255020CDE90654AF
:10429000059004A91A480894FFF784FD18B1652118
:1042A00018A000F022FD01200095CDE901040022B4
:1042B000694613480394FFF7C3F918B16E2111A0A2
:1042C00000F013FD042269460D48CDE90045FFF7D3
:1042D000B7F918B175210BA000F007FD1020CDE94A
:1042E0000D040DA90648FFF74FF8002803D07C21E4
:1042F00004A000F0FAFC0FB030BD0000002C01401B
:10430000300D00202E2E2F5372632F74696D2E6393
:104310000000000010B524488EB04FF0804100240A
:10432000C0E9001440F26471C0E902410461846193
:10433000FFF752F818B18F211CA000F0D6FC4FF403
:104340008050079007A91848FFF7BCF818B19521CD
:1043500016A000F0CAFC1448FFF76AFC18B19A21B5
:1043600012A000F0C2FC0B940BA90F480C94FFF7AD
:104370000BF818B1A1210DA000F0B7FC602000904F
:1043800040F2B230CDE901040022694606480494A7
:10439000FFF7E6FB18B1AA2104A000F0A6FC024832
:1043A000FFF700FB0EB010BD700D00202E2E2F5316
:1043B00072632F74696D2E630000000010B52348EE
:1043C0008EB02149016063210024C0E901144FF639
:1043D000FF71C0E9031480218161FEF7FDFF18B170
:1043E000BF211BA000F081FC4FF48050079007A96B
:1043F0001648FFF767F818B1C52115A000F075FC45
:104400001248FFF721FB18B1CA2111A000F06DFC82
:104410000B940BA90D480C94FEF7B6FF18B1D121EF
:104420000BA000F062FC0094019402940022694603
:1044300006480494FFF7D4FA002803D0DA2104A038
:1044400000F053FC0EB010BD00040040B00D002081
:104450002E2E2F5372632F74696D2E63000000009F
:104460000D4810B50B4901604FF4E1314160002166
:1044700081600C22C160C0E904128161C161FFF753
:104480003DFD002805D0BDE810404E2103A000F0FE
:104490002CBC10BD00440040F00D00202E2E2F53E8
:1044A00072632F75736172742E630000FEE77047AC
:1044B0000907090E002806DA00F00F0000F1E020DD
:1044C00080F8141D704700F1E02080F80014704758
:1044D000BFF34F8F05480168054A01F4E0611143BD
:1044E0000160BFF34F8F00BFFDE700000CED00E05F
:1044F0000400FA052DE9F0471D4E0C4681464FF4A5
:1045000000750027B9B2484600F04BF826F81700AE
:104510007F1CAF42F6DB1819A84227DA002006E01C
:1045200032F810100719401C26F8171080B2984274
:10453000F6DB484600F01EF8FEF77CFAB0464FEA7C
:104540008926002406F1006606EB440138F81420A1
:1045500000230120FEF72EFA641CA4B20746AC42E9
:10456000F2D3FEF71DFA3846BDE8F0870120FBE7DD
:10457000CC00002000B585B000210091012180020F
:1045800000F100600191CDE90201FEF753FA04A9A0
:104590006846FEF7B1F9002801D1FEF701FA05B02F
:1045A00000BD800200F1006030F8110070474FF448
:1045B0007A74204600F08AFEFBE700F0ECBE30B5CE
:1045C0008FB001210804CDE90010002402940225D7
:1045D0000491CDE907504FF4E01009906846FEF7CA
:1045E0002FFD00B1FEE70F20CDE90A054FF48060F2
:1045F000CDE90C4002210AA80E94FEF7FBFB00B1A6
:10460000FEE7FEF7C1FC4FF47A71B0FBF1F0FEF764
:10461000A5FE0420FEF796FE00220F21501EFEF795
:10462000B7FB0FB030BD00000D48016841F001013B
:10463000016041680B4A1140416001680A4A11401B
:104640000160016821F480210160416821F4FE01CC
:1046500041604FF41F0181600549044808607047BC
:10466000001002400000FFF8FFFFF6FE00180008EF
:1046700008ED00E00148FFF7E1B80000300D002030
:104680000148FFF7DBB80000700D00200148FFF77C
:10469000D5B80000B00D00200148FFF7CFB80000EA
:1046A000740E0020F0B50268164B174C174D4FF0F2
:1046B0008047984205D0B84203D0A04201D0A8421A
:1046C00003D122F070064A683243984205D0B842BE
:1046D00003D0A04201D0A84203D122F44074CA689A
:1046E000224322F080044A69224302608A68C2623F
:1046F0000A688262984201D109690163012141611E
:10470000F0BD0000002C0140000400400008004003
:1047100010B50123046A8B409C430462036A8A40FB
:104720001343036210BD10B5846842EA032224F4E7
:104730007F440A432243826010BD826822F07002E7
:104740000A4342F0070181607047000030B5026AF9
:1047500022F001020262026A4368846924F0730550
:104760000C682C4322F002058A682A430A4DA842AD
:104770000BD122F00805CA6823F440732A434D691F
:1047800022F004021D438B692B4343608461496816
:104790004163026230BD0000002C014030B5026A66
:1047A00022F010020262026A436884690D6824F4F0
:1047B000E64444EA05248D6822F0200242EA05120C
:1047C0000B4DA8420ED1CD6822F0800242EA0512BC
:1047D0004D6923F4406343EA85038D6922F040026A
:1047E00043EA85034360846149688163026230BDA6
:1047F000002C014030B5026A22F480720262036A22
:104800004268C46923F4007324F073050C682C43D8
:104810008D6843EA05230C4DA8420ED1CD6823F4E0
:10482000006343EA05234D6922F4405242EA05122F
:104830008D6923F4806342EA05124260C4614968CD
:10484000C163036230BD0000002C014030B5026A34
:1048500022F480520262046A4268C3690D6823F43C
:10486000E64343EA05238D6824F4005444EA053402
:10487000064DA84204D14D6922F4804242EA8512D5
:104880004260C36149680164046230BD002C01408C
:1048900030B403689A6822F070044A68224322F018
:1048A00007040A6822439A604A6812F00F0F1FD16A
:1048B0001211082A1CD2DFE802F01B1B1B1B0B1D68
:1048C00023040B69D1E90221006830BCFFF72BBF3C
:1048D0000268136A146A24F001041462026894697D
:1048E000096924F0F00444EA01119161006803624F
:1048F00030BC70470A698968006830BC00F006B8AF
:104900000A698968006830BC00F03EB810B5036AD7
:10491000046A24F001040462846924F0F00444EA87
:10492000021423F00A020A438461026210BD0000EF
:1049300070B5046A24F0010404628469056A0F4EAC
:10494000B04208D0B0F1804F05D00D4EB04202D039
:104950000C4EB04203D124F00304144301E044F0B0
:1049600001041A0724F0F00444EA126225F00A0355
:1049700001F00A0119438261016270BD002C0140FF
:10498000000400400008004010B5036A23F0100343
:1049900003628369046A23F4704343EA023224F019
:1049A000A00343EA01118261016210BD30B5046ABF
:1049B00024F0100404628469056A24F4407444EA13
:1049C000022222F470444FF6FF7202EA03322243BD
:1049D000A02425F0A00304EA0111194382610162B9
:1049E00030BD10B5406A0021C185C184FFF7FCF9D4
:1049F00010BD0168CA6822F49072CA6001684A69F1
:104A000022F001024A61202180F83A10704710B567
:104A100090F83A10222901D0022010BD8168B1F52A
:104A2000805F11D00169002901681FD0496801F039
:104A30007F03816A4A1C82620B70C18D491E090482
:104A4000090CC18518D02BE00269816A002A02682E
:104A5000526805D0D2B20A80816A491C8162ECE7B3
:104A6000C2F308020A80816A891CF7E74A68816AF2
:104A70004B1C83620A70E0E70168CA6822F02002DA
:104A8000CA600168CA6822F48072CA6001684A6913
:104A900022F001024A61202180F83A10FFF7E2FA81
:104AA000002010BD2DE9F041044600680169E2686C
:104AB00021F44051114301612169A06808436169F3
:104AC00008432168CA6841F20C639A430243CA60F2
:104AD00020684169A26921F44071114341614C4948
:104AE00020686425322688423CD1FEF763FA00EB49
:104AF000C00101EB001061688900B0FBF1F7FEF71F
:104B000059FA00EBC00101EB00106168B046890062
:104B1000B0FBF1F0B0FBF5F06FF01801484307EB84
:104B2000800106EB0110B0FBF5F000F0F006FEF797
:104B300041FA00EBC00101EB001061688900B0FB95
:104B4000F1F0B0FBF5F006EB0016FEF733FA00EBE0
:104B5000C00101EB001061688900B0FBF1F7FEF7BE
:104B600029FA3BE0FEF716FA00EBC00101EB00105A
:104B700061688900B0FBF1F7FEF70CFA00EBC001A9
:104B800001EB00106168B0468900B0FBF1F0B0FBAA
:104B9000F5F06FF01801484307EB800106EB0110B8
:104BA000B0FBF5F000F0F006FEF7F4F900EBC00101
:104BB00001EB001061688900B0FBF1F0B0FBF5F08B
:104BC00006EB0016FEF7E6F900EBC00101EB001062
:104BD00061688900B0FBF1F7FEF7DCF900EBC0017A
:104BE00001EB001061688900B0FBF1F0B0FBF5F05B
:104BF0006FF01801484307EB800108EB0110B0FB90
:104C0000F5F0216800F00F0030448860BDE8F081C5
:104C10000038014090F83910212901D00220704756
:104C20008168B1F5805F016A0BD04A1C026202689C
:104C300009785160C18C491E0904090CC1840ED049
:104C400017E009880268C1F3080151600169002971
:104C5000016A02D0491C0162ECE7891CFBE701688C
:104C6000CA6822F08002CA600068C16841F0400151
:104C7000C160002070472DE9F041984617460E4666
:104C80000446069D1DE0681C1BD02DB1FDF7D2FF28
:104C9000A0EB0800A84214D92068C16821F4D071A3
:104CA000C1602068416921F001014161202084F840
:104CB000390084F83A00002084F838000320BDE869
:104CC000F0812068006836EA000004D00020B84275
:104CD000D9D00020F3E70120F9E700000148FFF7F1
:104CE00085B80000F00D0020FEE7FEE70FB4084B8A
:104CF00010B504A902AA039800F01CF8044602A902
:104D0000002000F0C1F8204610BC5DF814FB000044
:104D1000894E000802E008C8121F08C1002AFAD113
:104D200070477047002001E001C1121F002AFBD12B
:104D3000704700002DE9FF4F89B09B4604460025CF
:104D400006E025280BD05A460B999047641C6D1C31
:104D500020780028F5D10DB02846BDE8F08F002757
:104D6000B8460122474900E0074314F8013F203BC1
:104D700002FA03F00842F7D120782E2819D114F84E
:104D8000010F47F004072A280ED06FF02F02207879
:104D9000A0F1300109290CD808EB880102EB410190
:104DA00000EB0108641CF2E70A98641C50F8048BBD
:104DB0000A9020780028CED0642808D0692806D030
:104DC00075281ED05A460B9990476D1C58E00A99D9
:104DD0004FF00A0901C90A91002802DA40422D2148
:104DE00002E0390504D52B218DF82010012103E0C4
:104DF000F90704D02021F7E78A4608AE0DE000212C
:104E0000FAE70A994FF00A0901C90A91F7E74946FA
:104E1000FCF760FF303106F8011D0028F7D1ADEB3B
:104E2000060000F12009780701D44FF00108C845B9
:104E300002DDA8EB090000E000208046002706E024
:104E400008A85A46C05D0B9990476D1C7F1C5745BA
:104E5000F6DB04E030205A460B9990476D1CB8F100
:104E60000001A8F10108F5DC05E016F8010B5A462F
:104E70000B9990476D1CB9F10001A9F10109F4DC0F
:104E8000641C65E7092801000A68531C0B60107058
:104E90007047000049F6404000F018FA104D4FF4FA
:104EA000FA66002442F21077642307220DA10F480E
:104EB000EC61FFF7EFF8304600F008FAE8690128E6
:104EC00009D0002202210A48FDF7AFFE642000F05D
:104ED000FDF9FFF7FDFA3846EC6100F0F7F9E3E77A
:104EE0000000002040616C6976652E00F00D002006
:104EF000000C0140EFF30580002800D0012070472E
:104F000070B50C4605460021FFF74BFB0346B0F594
:104F1000007F0CD2002207E0561CB1B22846FFF7F2
:104F200040FB24F81200B2B29A42F5D370BD0020C3
:104F300040F2FF114FEA000224F81020401C80B21A
:104F40008842F9D370BD000096B0FDF781FEFFF7EF
:104F500036FBFFF729F9FFF7FDF8FFF769F9FFF7CF
:104F6000D9F9FFF72BFAFFF77BFA244800214FF419
:104F700000724180028000F58160214AC0E902216F
:104F8000204AC0E9002120480A4601210068149007
:104F900014A800F021FA1D4C1B491422E063091DDE
:104FA0006846FCF71BFD0021684600F0FEF9164933
:104FB000E0621422183105A8FCF710FD002105A8B5
:104FC00000F0F3F91049206314222C310AA8FCF7F1
:104FD00005FD00210AA800F0E8F90B4960631422DE
:104FE00040310FA8FCF7FAFC00210FA800F0DDF912
:104FF000A063FFF7C5F800F070F9FEE7CC040020CD
:10500000700D0020B00D0020EC6D000800000020A5
:105010000EB5924C924E03274FF400792762A6F505
:105020008C65A6F80090A5F800904FF4FA7000F097
:105030004DF90122A11C8B48FEF7EAFF64230C22E4
:1050400089A18848FFF726F84FF0000A4FF0040BBB
:1050500044F620626846616900F072F900980828F9
:1050600076D185A1301DFCF7D2FC50B13079632890
:105070006FD064286ED0722843D0742809D080A1E4
:1050800073E06423072280A17648FFF703F8FFF757
:105090001FFA724A7EA12832301DFCF7E9FCA06A93
:1050A000A0F11F01612928D2C0B2291DFFF728FFF6
:1050B00094F828000021FFF774FA6880484502D36D
:1050C00040F2FF1068807449002201F58160C4F845
:1050D00020B0FDF791F862486A8870A13C38FFF76C
:1050E00005FE5F483C38FCF78BFC5D49642382B2C7
:1050F0003C395C48FEF7CEFFA7E06423052269A196
:10510000F7E7564A62A12832301DFCF7B1FCA06ACD
:105110001F38612839D201202062FCF7F5FFC4F85E
:1051200020A0FDF7EBF94FF4C87000F0CFF86A88C3
:10513000501EB0F5FF7F0ED894F82800291D00F00E
:10514000C1FD47486A8855A13C38FFF7CFFD10E004
:105150007EE05BE01DE0207810B1012802D077E00E
:1051600052A102E084F800A052A13D483C38FFF76C
:10517000BDFD3B483C38FCF743FC3949642382B20F
:105180003C393848FEF786FF62E06423052245A1DA
:10519000F7E74AA1301DFCF749FCA046606214E025
:1051A0002E4A3CA12832FCF763FCD8F81800B8F866
:1051B000281005EB4002401C9180C8F818003FA160
:1051C0000020FCF733FCC8F824000028E8D1B8F828
:1051D000180068800020C8F818A004E005EB400122
:1051E000401CCA888A8069888142F7DC88B2401EE8
:1051F00068802949002201F58160C8F820B0FCF7D9
:10520000FBFF4FF4C870FDF765FB21E0134A20A1B6
:105210002832301DFCF72CFCA06A30B1012806D0E2
:10522000022809D0032810D116E027620DE0206A79
:1052300005280AD0022003E0206A072805D00620AE
:1052400020622169206B00F04DF8FA2000F03EF852
:105250000A2000F03BF8FBE60820F1E70000002000
:105260002C090020F00D00207374617274696E6760
:105270002E2E2E0A00000000726573657400000077
:1052800040653A332E000000726573656F6B000055
:10529000252A632C25640000CC04002040642C25C2
:1052A000642E000040653A312E00000040653A301F
:1052B0002E00000040653A3531322E002C000000EF
:1052C00001460020842900D0C81C704710B500B9E1
:1052D000012000F08BFE002010BD10B500F03AFF59
:1052E000002010BDFEB5064600200D46029001903C
:1052F000FFF700FE4FF0004498B102A8009001AB08
:1053000001222946304601F0D7FA012811D102982E
:1053100088B10A49E0080860BFF34F8FBFF36F8F71
:1053200009E001AB01222946304601F05FFA01286D
:1053300001D02046FEBD0198FEBD000004ED00E056
:10534000FEB5002506460F462C460195501C06D09A
:1053500002B11446FFF7CEFD20B1822015E04FF0D8
:10536000FF34F7E723463946002001AA01F094FBF9
:10537000012804D00CB1402007E0009506E0019818
:10538000002801DA862000E0082000909DE8070050
:1053900086E80700FEBD10B501F006FB012803D02A
:1053A000BDE8104000F07EBF10BD3EB504460D467E
:1053B000B0F90800FFF784FF02A9CDE90001208AB7
:1053C0002B4682B2D4E9001001F0E4F9012801D0A3
:1053D00000203EBD02983EBD08B50068009001293E
:1053E00007D0002013460246012103A001F082FCF1
:1053F00008BD0120F6E70000000000002DE9FC4197
:10540000002507462E4601950C0000D10124FFF728
:1054100071FD009690B101AB22460921384601F09A
:10542000B5FC012812D1019888B10A494FF080508B
:105430000860BFF34F8FBFF36F8F08E00023224651
:105440000421384601F0A2FC012800D0FF2528469F
:10545000BDE8FC8104ED00E07CB5002506462C4645
:105460000195FFF747FD0094A0B101AB0022082190
:10547000304601F08BFC012801D0FF207CBD019853
:1054800088B10A494FF080500860BFF34F8FBFF3D7
:105490006F8F08E000231A460321304601F076FCA6
:1054A000012800D0FF2528467CBD000004ED00E067
:1054B0002DE9F041184C0F460546E6682068001DAE
:1054C00000F07EFC38B9206890F82C10012088404C
:1054D000216981432161681C07D137B12168BDE88A
:1054E000F0410E48091D00F0A3BC20683544B542C8
:1054F0004560216805D2A06BBDE8F041091D00F0B0
:105500007FBC606B091D00F07BFCA06A854200D265
:10551000A562BDE8F081000078000020AC270020E3
:105520002DE9F041054600F08FFC2E4CA068401C90
:10553000A06020682C4F10B1606940B32DE0256059
:10554000A068012829D1002606EB860007EB800021
:1055500000F048FC761C072EF6D323488C3000F070
:1055600041FC2148A03000F03DFC1F48B43000F061
:1055700039FC1D48C83000F035FC1B48DC3000F019
:1055800031FC19488C3060631430A06305E020685A
:10559000E96AC06A884200D82560606A401C60627F
:1055A000E96A0120226988401043206101EB8100F3
:1055B00007EB8000291D00F03BFC00F065FC6069F2
:1055C00000280CD02068E96AC06A884207D20749DF
:1055D0004FF080500860BFF34F8FBFF36F8FBDE86F
:1055E000F081000078000020D026002004ED00E0CB
:1055F00010B500F029FC0E4C2068A0B90D4800F051
:10560000F1FB0C48143000F0EDFB0A48E060143068
:10561000206100220C210A2000F05AFE206010B107
:1056200005A100F0ADFCBDE8104000F02DBC00006D
:10563000B4000020C0270020546D7251000000000B
:1056400070B5114E114C17E000F0BCFD3068B8B1D8
:1056500001F0EEFA00F0F8FBF068C568281D00F0D4
:10566000AFFBA068401EA0606068401E606000F054
:105670000BFC284600F055F860680028E4D170BDA6
:1056800001F0D6FAF8E70000982700207800002003
:1056900030B4026C0B46002A0BD0C1681144C160C3
:1056A0004468A14201D30168C16030BC1846FCF7D0
:1056B00095B930BC70472DE9F041856B174604461B
:1056C0000026026C82B1C7B1E068FCF787F9E16897
:1056D000206C091AE1602268914202D26168081ABE
:1056E000E060022F16D017E02068A8B9606801F0CA
:1056F00019FA0646002060600EE0A068FCF76EF91B
:10570000216CA0680844A0606168884204D32068C6
:10571000A06001E005B16D1E6D1CA5633046BDE8BB
:10572000F08110B50446006B00F0C2FB2046BDE8D6
:10573000104000F0BDBB00000F4841F2B8714207B5
:1057400005D0C01D0C4A20F00700821A891A0B4AA6
:1057500000230144C2E900030839103A21F007018F
:1057600011604B600B600B1AC0E9001393604FF09F
:1057700000405360D0607047D80E002064000020C5
:10578000074C4FF08056074DFFF75AFF206801285D
:10579000FAD92E60BFF34F8FBFF36F8FF4E700008D
:1057A000D026002004ED00E02DE9F0479A46DDE91F
:1057B000098481466FF00303206B03EB82021044DF
:1057C000089D20F00706700707D0502080F311884D
:1057D000BFF34F8FBFF36F8FFEE723180A5C83F888
:1057E00034200A5C12B1401C1028F6D3002784F83C
:1057F0004370072D00D30625E562C4E91157201D2B
:1058000000F0FBFA04F1180000F0F7FA2461C5F18A
:1058100007006462A061E76484F85070524649460C
:10582000304600F03DFA2060B8F1000F01D0C8F812
:105830000040BDE8F087000030B5114900E0114696
:105840000A688242FBD34B685C18844203D14068EB
:1058500018444860084643681C18944209D1084C13
:10586000103C2468A24209D052681A4442600A6877
:1058700012680260814200D0086030BD0460F9E720
:105880006400002070B5002441600B4D006191421E
:1058900006D8D11A8269914206D2011D286907E013
:1058A0009A4203D2994201D3012403E0011DE86822
:1058B00000F0A6FA204670BDB400002010B50446E2
:1058C00000F0C2FAA06B28B15FF0000400F0DCFA2F
:1058D000204610BD0124F9E730B587B02B4D4BE0D1
:1058E0000498002848DB069C606910B1201D00F078
:1058F00067FA02A800F0B6F8024604980A283BD2DC
:10590000DFE800F00505053A263705053A26059833
:10591000A169034601442046FFF7B4FF00B3616A62
:1059200020468847E069012826D10020009005988C
:10593000A169002342181946204601F027FA78B9D8
:10594000502080F31188BFF34F8FBFF36F8FFEE7B6
:105950000598A06128B1811813462046FFF792FFF1
:105960000AE0502080F31188BFF34F8FBFF36F8F91
:10597000FEE7204600F09CFA00231A4604A9286896
:1059800000F0CAFC0028ABD107B030BDB400002045
:105990002DE9FC410F46054600F014FC01A800F07B
:1059A00061F80446019818B101F042F9BDE8FC81A4
:1059B000224EAFB130690068A8B30027291B3A46D0
:1059C000306800F0F1FA01F033F90028EED11C49FB
:1059D0004FF080500860BFF34F8FBFF36F8FE5E744
:1059E000A542EBD801F024F9F0682746C068C468E6
:1059F000201D00F0E5F9E069012810D1A0692B46CF
:105A000041193A462046FFF73DFF40B100200346CA
:105A1000014600902A46204601F0B8F920B1616A9B
:105A200020468847C2E707E0502080F31188BFF383
:105A30004F8FBFF36F8FFEE70127BFE7B400002051
:105A400004ED00E00648416B096829B1416BC96863
:105A5000C9684968816270474FF0FF31FAE700007A
:105A60007800002070B5054600F0ACFF064E0446F5
:105A7000B068844203D200F009F8012000E0002061
:105A800028602046B46070BDB4000020F8B5194D00
:105A90001FE0C068C4680668201D00F091F9616AC3
:105AA00020468847E069012813D1A0693044B042FC
:105AB00006D924616060211DE86800F0A1F908E0C2
:105AC00000200346014600903246204601F05EF970
:105AD00038B1E86801680029DBD12969C5E90310FC
:105AE000F8BD502080F31188BFF34F8FBFF36F8F45
:105AF000FEE70000B400002008484068401C4FF05A
:105B0000500080F3118804D0BFF34F8FBFF36F8F25
:105B1000FEE7BFF34F8FBFF36F8FFEE76C000020EF
:105B2000074CE068016841B1C0680021D0F800006E
:105B3000FFF72EFFFFF7D0FEF3E701210020F7E784
:105B4000B40000202DE9F041044600F07DF994F9FD
:105B5000455004F1240609E0606A48B1304601F07E
:105B60002DF808B100F068FA6D1E6DB2002DF3DC5F
:105B70004FF0FF3684F8456000F086F900F064F9D4
:105B800094F9445004F1100709E0206948B13846FF
:105B900001F014F808B100F04FFA6D1E6DB2002D3F
:105BA000F3DC84F84460BDE8F04100F06DB900001A
:105BB0002DE9F0410546002700F004FB314E306826
:105BC00008B9FFF7B9FDF06805424BD1C5B30835F8
:105BD00068070ED005F00700C0F10800054468070B
:105BE00007D0502080F31188BFF34F8FBFF36F8F22
:105BF000FEE72DB37068854234D822481030014644
:105C00000C6801E020460C466168A94202D2216876
:105C10000029F7D131688C4224D0076821680160DF
:105C200060680837411B10290FD96019420708D056
:105C3000502080F31188BFF34F8FBFF36F8FFEE7C3
:105C400010E041606560FFF7F7FD61687068401A19
:105C50007060B268904200D2B060F06801430020EA
:105C6000C4E9000100F0E4FF780707D0502080F37A
:105C70001188BFF34F8FBFF36F8FFEE73846BDE843
:105C8000F0810000540000200449086818B1086839
:105C9000826C521C82640868704700007800002003
:105CA00010B5031F4FF080741C601B1F21F0010111
:105CB0001960191F024B0B60143940380A6010BD7F
:105CC000F95A000830B4B2F5007F10D2531E06D442
:105CD00031F8134001EB43055B1E6C80F8D50A8058
:105CE000521C13B20A4630BC0021FEF703BC30BC84
:105CF0007047000001272A4D2A4C0026E0882189A0
:105D0000884249D02849085C402803D0617801299D
:105D100003D036E067706E801DE02E2811D0402839
:105D200019D069882A88914209D21D4A121D8854C7
:105D30001B496A88491D56546988491C69802E2868
:105D400009D11AA1281DFBF762FE08B366706169CC
:105D5000E06AFFF7C7FA68882988884211D310489B
:105D600014A13C38FEF7C2FF0D483C38FBF748FE53
:105D70000B4982B264233C391048FEF78BF96E80E0
:105D80006670E088B0F5FF7F05D8401CE08003E036
:105D9000E7616670DFE7E6800120FFF797FAADE77D
:105DA0002C09002000000020300B0020616C697677
:105DB0006500000040653A322E000000F00D002022
:105DC000D0E9013201699A60D0E901235A604A683A
:105DD000824201D182684A60002202610868401E46
:105DE0000860704700F108014FF0FF32C0E901126E
:105DF000C1600161002101607047002101617047AD
:105E000030B50B685A1C02D000F1080202E00269AA
:105E100004E02246546825689D42FAD953684B60D5
:105E200099608A60516008610168491C016030BD59
:105E300042684A6093688B6093685960916008611A
:105E40000168491C01607047502080F31188BFF33E
:105E50004F8FBFF36F8F0A494868401C4860012884
:105E60000CD10848006810F0FF0F07D0502080F3D5
:105E70001188BFF34F8FBFF36F8FFEE770470000AD
:105E80006C00002004ED00E00849486828B1401E7D
:105E9000486001D180F311887047502080F3118849
:105EA000BFF34F8FBFF36F8FFEE700006C00002041
:105EB00070B5002827D0144DA0F108046168E86887
:105EC000014207D1502080F31188BFF34F8FBFF3F9
:105ED0006F8FFEE722683AB1502080F31188BFF33C
:105EE0004F8FBFF36F8FFEE78143616000F06AF967
:105EF00060686968084468602046FFF79DFCBDE85B
:105F0000704000F095BE70BD5400002006484FF46C
:105F10007A710068B0FBF1F14FF0E020491E416159
:105F200007210161704700005000002010B5FBF709
:105F30002FFD114910280ED300F1E02090F8F00356
:105F40000A78904207D2502080F31188BFF34F8F18
:105F5000BFF36F8FFEE709480068896800F4E060CE
:105F6000884207D9502080F31188BFF34F8FBFF3C9
:105F70006F8FFEE710BD00006C0000200CED00E00C
:105F800010B5084B002200BF53F832401CB1521C20
:105F9000082AF9D310BD43F8321003EBC201486060
:105FA00010BD00009026002070B515460E46044630
:105FB000FFF74AFF94F944100020491C01D184F8EE
:105FC000440094F94510491C01D184F84500FFF7BD
:105FD0005BFFA06B28B92A46314604F1240000F08B
:105FE00049F82046BDE87040FFF7ACBD10B502008F
:105FF00014D00F48006B38B1502080F31188BFF3E4
:106000004F8FBFF36F8FFEE700F0DCF800211046E2
:10601000FFF74EFA00F00CFE002807D105494FF0BB
:1060200080500860BFF34F8FBFF36F8F10BD00002B
:106030007800002004ED00E001490120C8617047AC
:106040007800002010B50C4650B109490968183194
:10605000FFF7D6FE2046BDE810400121FFF728BA21
:10606000502080F31188BFF34F8FBFF36F8FFEE78F
:106070007800002070B514460D4668B10A490968D9
:106080001831FFF7D5FE0CB14FF0FF3521462846F9
:10609000BDE87040FFF70CBA502080F31188BFF3C1
:1060A0004F8FBFF36F8FFEE77800002070B50400BC
:1060B00039D01D4DE06A2968C96A884233D2A06987
:1060C000002804DB2868C06AC0F10700A061E16A0B
:1060D000164E01EB8101606906EB810188421FD1F8
:1060E000201DFFF76DFE012150B9E06A00EB800230
:1060F00056F8222022B92A6901FA00F082432A6167
:106100002868C06AE0622A6981401143296100EB76
:10611000800006EB8000211DBDE87040FFF788BEBF
:106120002868C06AE06270BD78000020D026002098
:1061300028B107490A6A0260C96841607047502067
:1061400080F31188BFF34F8FBFF36F8FFEE700001E
:10615000780000201CB517480024CDE900402346F4
:10616000802215A1164800F015FB012803D100F08C
:10617000E9FD012809D0401C1AD1502080F3118874
:10618000BFF34F8FBFF36F8FFEE7502080F311886E
:10619000BFF34F8FBFF36F8F06484FF0FF312C389E
:1061A000816201214161C460BDE81C4000F040B83B
:1061B0001CBD0000A400002049444C450000000024
:1061C000815700080248016B491C016370470000B9
:1061D000780000201448016B11B10121C1617047A2
:1061E0000021C1610169B1FA81F1C1F11F0101EB27
:1061F00081020E4951F822306BB101EB820101F1AD
:1062000008034A6852684A609A4201D152684A605B
:10621000D16801607047502080F31188BFF34F8F21
:10622000BFF36F8FFEE7000078000020D02600202B
:106230001CB5194908780190FF20087008788DF87E
:1062400000009DF80000154A00F050001070072073
:10625000906005E09DF800305B008DF80030401E36
:106260009DF800301B06F5D4000200F4E060906059
:10627000019808700A48016841F4700101600168E2
:1062800041F070410160FFF741FE00205060FBF7D4
:1062900049FB00201CBD000000E400E06C00002071
:1062A00020ED00E010B5502080F31188BFF34F8F30
:1062B000BFF36F8F00F08CFB18B104494FF0805092
:1062C0000860002080F3118810BD000004ED00E09C
:1062D00070B50E46050013D0D6B105FB06F0483068
:1062E000FFF766FC040009D004F1480120468EB196
:1062F0000160C0E90F56012100F0C4F8204670BDCE
:10630000502080F31188BFF34F8FBFF36F8FFEE7EC
:106310000020E4E70060ECE72DE9FF4F002683B0A2
:106320009B468A46040003D0BAF1000F08D011E062
:10633000502080F31188BFF34F8FBFF36F8FFEE7BC
:10634000206C38B1502080F31188BFF34F8FBFF31A
:106350006F8FFEE700F028FBDFF824814FF0000983
:106360004FF0805748B9059838B1502080F3118814
:10637000BFF34F8FBFF36F8FFEE7FFF765FDA56B90
:1063800045B351462046E668FFF782F9BBF1000F9E
:1063900013D0E660606A50B104F1240000F00EFCF6
:1063A00028B1C8F80070BFF34F8FBFF36F8FFFF7AE
:1063B0006BFD012007B0BDE8F08F6D1EA56320685E
:1063C00010B9FFF761FC606020690028EFD004F18C
:1063D0001000E3E7059808B11EB106E0FFF754FD91
:1063E00027E06846FFF7A4FE0126FFF74DFDFFF703
:1063F000E9FEFFF729FD94F94400401C01D184F81F
:10640000449094F94500401C01D184F84590FFF771
:106410003BFD05A9684600F087F9002820460AD010
:10642000FFF790FB00F004FC2046FFF747FA002836
:10643000A3D00020BEE7FFF741FAD8B1206830B9F9
:10644000FFF702FD6068FFF731FEFFF71DFD04F165
:1064500024000599FFF7F6FD2046FFF773FB00F0D7
:10646000E7FB002889D1C8F80070BFF34F8FBFF356
:106470006F8F82E72046FFF765FB00F0D9FB7CE7D2
:1064800004ED00E070B50D46040025D0FFF7DCFCFC
:10649000D4E90F20216802FB001161600021A16393
:1064A0002168A1600A46D4E90F01401E00FB0121CA
:1064B000E16021464FF0FF3001F8440F487004F1CD
:1064C00010008DB1FFF78EFC04F12400FFF78AFC69
:1064D000FFF7DAFC012070BD502080F31188BFF374
:1064E0004F8FBFF36F8FFEE721690029F0D000F0D6
:1064F00065FB0028ECD004494FF080500860BFF3E2
:106500004F8FBFF36F8FE3E704ED00E02DE9FF4706
:1065100082B01D468A464FF00008040003D0BAF14D
:10652000000F08D011E0502080F31188BFF34F8F87
:10653000BFF36F8FFEE7206C38B1502080F31188D5
:10654000BFF34F8FBFF36F8FFEE7022D0AD1E06BD1
:10655000012807D0502080F31188BFF34F8FBFF37D
:106560006F8FFEE700F020FA3F4F4FF000094FF029
:10657000805648B9049838B1502080F31188BFF391
:106580004F8FBFF36F8FFEE7FFF75EFCA06BE16BF1
:10659000884207D3022D05D00498D0B1B8F1000F7E
:1065A0001AD01EE02A4651462046FFF784F8616A59
:1065B00019B104F1240000F001FB20B13E60BFF3EB
:1065C0004F8FBFF36F8FFFF75FFC012006B0BDE870
:1065D000F087FFF759FC22E06846FFF7A9FD4FF06E
:1065E0000108FFF751FCFFF7EDFDFFF72DFC94F9D3
:1065F0004400401C01D184F8449094F94500401CAB
:1066000001D184F84590FFF73FFC04A9684600F0EB
:106610008BF830B12046FFF795FA00F009FB002017
:10662000D4E7FFF711FCA06BE16B884213D1FFF7B1
:106630002BFC04F110000499FFF704FD2046FFF73E
:1066400081FA00F0F5FA00289ED13E60BFF34F8F2B
:10665000BFF36F8F98E7FFF717FC2046FFF772FA3A
:1066600000F0E6FA90E7000004ED00E02DE9F047C5
:106670001F4690468946040003D0B9F1000F08D0A8
:1066800011E0502080F31188BFF34F8FBFF36F8F5D
:10669000FEE7206C38B1502080F31188BFF34F8F94
:1066A000BFF36F8FFEE7022F0AD1E06B012807D0FE
:1066B000502080F31188BFF34F8FBFF36F8FFEE739
:1066C000FFF734FC5020EFF3118680F31188BFF3FD
:1066D0004F8FBFF36F8FA06BE16B884206D3022F01
:1066E00004D0002086F31188BDE8F08794F9455066
:1066F0003A4649462046FEF7DEFF681C04D06D1C72
:1067000084F845500120EDE7606A0028FAD004F1D2
:10671000240000F053FA0028F4D0B8F1000FF1D0B3
:106720000121C8F80010EDE770B50D46040019D03E
:1067300005B3FFF789FB164AD1682868431C0FD0C0
:106740002368126A934202D062688A421AD9626848
:10675000891A814216D2401A28602046FFF7E8FCC9
:10676000002410E0502080F31188BFF34F8FBFF357
:106770006F8FFEE7502080F31188BFF34F8FBFF378
:106780006F8FFEE70124FFF77FFB204670BD0000FE
:10679000780000202DE9FF5F8346DDE90E879946EA
:1067A00016468A469000FFF703FA05001AD05420D7
:1067B000FFF7FEF9040012D025630021CDE9024164
:1067C000CDE900874B46324651465846FEF7ECFF6E
:1067D0002046FEF7A5FE012004B0BDE8F09F284644
:1067E000FFF766FB4FF0FF30F6E700002DE9F041C0
:1067F0001F4690460D46012690B10446FFF724FB44
:106800000FB1E06C386094F85000022184F8501009
:10681000B8F1050F16D2DFE808F0150B0E141200C0
:10682000502080F31188BFF34F8FBFF36F8FFEE7C7
:10683000E16C294301E0E16C491CE16402E00228BB
:1068400003D0E564012802D02AE0002628E0201DBC
:10685000FFF7B6FA154DE06A01212A69814011431C
:106860002961134900EB800001EB8000211DFFF737
:10687000DFFAA06A38B1502080F31188BFF34F8F40
:10688000BFF36F8FFEE7E06A2968C96A884207D9BB
:1068900008494FF080500860BFF34F8FBFF36F8FF0
:1068A000FFF7F2FA3046BDE8F081000078000020E2
:1068B000D026002004ED00E02DE9F0471F46DDF86A
:1068C000209092460D4604004FF001081AD0FFF7C1
:1068D0002DFB5020EFF3118680F31188BFF34F8F0B
:1068E000BFF36F8F0FB1E06C386094F85000022155
:1068F00084F85010BAF1050F16D2DFE80AF0150B34
:106900000E141200502080F31188BFF34F8FBFF395
:106910006F8FFEE7E16C294301E0E16C491CE16403
:1069200002E0022803D0E564012803D033E04FF0F1
:10693000000830E0A06A38B1502080F31188BFF31E
:106940004F8FBFF36F8FFEE7154D286B012780B186
:10695000144804F1180100BFFFF76AFAE06A2968D9
:10696000C96A884217D9B9F1000F13D0C9F800706D
:1069700011E0201DFFF724FAE16A2A6907FA01F005
:106980001043286101EB81000649B43901EB800016
:10699000211DE1E7EF6186F311884046BDE8F087ED
:1069A00078000020842700200548416919B1006B58
:1069B00018B1002070470120704702207047000086
:1069C000780000200148C06870470000780000206F
:1069D0002DE9F0412E4C0027206B40B1A069401CEE
:1069E000A061E06900B101273846BDE8F081E668A2
:1069F000761CE66013D1606B006838B1502080F3DC
:106A00001188BFF34F8FBFF36F8FFEE7606BA16BF1
:106A10006163A063206A401C2062FFF713F8A06A3C
:106A2000DFF87080864209D3606B006880B1606BCC
:106A3000C068C568686886420DD2A0622068C06AD6
:106A400000EB800158F821000128CAD90127C8E7C6
:106A50004FF0FF30F1E7281DFFF7B2F9A86A18B12F
:106A600005F11800FFF7ACF9E86A012122698140BD
:106A70001143216100EB800108EB8100291DFFF724
:106A8000D7F9E86A2168C96A8842CDD30127CBE7E4
:106A900078000020D02600202DE9F0411E46154642
:106AA00088460746FFF7D0F91C4C206890F8500044
:106AB000022814D02068C16CB943C1642168012048
:106AC00081F850005EB101213046FEF7F1FC144917
:106AD0004FF080500860BFF34F8FBFF36F8FFFF709
:106AE000D3F9FFF7B1F915B12068C06C28602068B0
:106AF00090F8500001280ED02068C16C21EA0801EE
:106B0000C16401252168002081F85000FFF7BCF91D
:106B10002846BDE8F0810025F4E700007800002059
:106B200004ED00E070B504004FF0000140D0214DAD
:106B30002868844207D0502080F31188BFF34F8F1C
:106B4000BFF36F8FFEE7A06C38B1401EA064636C8A
:106B5000E26A9A422CD040B12AE0502080F311889A
:106B6000BFF34F8FBFF36F8FFEE7201DFFF728F9AC
:106B7000114A012150B9E06A00EB800352F823303A
:106B800023B92B6901FA00F083432B61606CE0624A
:106B9000C0F10700A061E06A2B69814019432961B7
:106BA00000EB800002EB8000211DFFF741F901217D
:106BB000084670BD78000020D02600202DE9F04165
:106BC000C068C468ACB104F118000746FFF7F8F8D4
:106BD000154D286B0126A0B139461448FFF728F956
:106BE000E06A2968C96A88421CD90120EE61BDE8C3
:106BF000F081502080F31188BFF34F8FBFF36F8F68
:106C0000FEE7201DFFF7DCF8E16A2A6906FA01F0C9
:106C10001043286101EB81000449B43901EB800085
:106C2000211DDBE70020E2E7780000208427002018
:106C30002DE9F0472C4D00242746286B38B1FFF78B
:106C400003F9286B401E2863286B40B146E05020B2
:106C500080F31188BFF34F8FBFF36F8FFEE7A968F2
:106C6000224E0120D1B3A6F1B40980463068E8B1C4
:106C7000F068C46804F11800FFF7A2F8201DFFF7C0
:106C80009FF8E06A2A6908FA00F11143296100EBD4
:106C9000800109EB8100211DFFF7CAF8E06A29682D
:106CA000C96A8842E2D3C5F81C80DFE70CB1FEF761
:106CB000C9FEAC6944B14646FFF78AFE00B1EE61F9
:106CC000641EF9D10020A861E86938B1084901279C
:106CD00038070860BFF34F8FBFF36F8FFFF7D4F80B
:106CE0003846BDE8F08700007800002084270020A7
:106CF00004ED00E02DE9F0470746994616460D469B
:106D00002820DDF820A0FEF753FF04000ED0B8467F
:106D10004F46D1466DB1FEF76BFC04F11801C4F883
:106D2000008081E8E002201DFFF767F82046BDE8FB
:106D3000F087502080F31188BFF34F8FBFF36F8F20
:106D4000FEE700001CB5FEF753FC0C48006860B17C
:106D50000A490620091DCDE900010023802208A16F
:106D60000948FFF717FD002807D1502080F311884C
:106D7000BFF34F8FBFF36F8FFEE71CBDB400002041
:106D8000546D722053766300215B0008FEB51E46E9
:106D900013460200089D4FF0000014D0124C2768E3
:106DA000002F0FD0CDE900130292062915DAFFF764
:106DB000FBFD02284FF000030DD000226946206839
:106DC000FFF7A4FBFEBD502080F31188BFF34F8F67
:106DD000BFF36F8FFEE72A46F0E70023324669468D
:106DE0003846FFF743FCFEBDB400002051220008E6
:106DF000D86E0008115000080000000000000000DC
:106E000080000000CC6E00087D2200080000000019
:106E10000000000080000000C06E0008F55C000863
:106E2000020000000000000080000000AC6E0008BE
:106E3000954E0008000000000000000080000000E7
:106E4000E46E0008AF4500080000000000000000EC
:106E500080000000000000000000000001020304A8
:106E6000060708090000000001020304DDDDDDDD86
:106E7000DCBBBBDDDDDDDDDDDDDDDDDD98888888CB
:106E80008888888877777777778888888555555672
:106E900066666666666666666668888883333332C9
:106EA00022222222222222222228888D6573705FCC
:106EB000776174636865725F5461736B00000000F2
:106EC00053657269616C5461736B0000436F6E743B
:106ED000726F6C5461736B005F6D61696E546173A6
:106EE0006B00000064656661756C745461736B00BF
:106EF000106F000800000020CC000000144D0008B6
:106F0000DC6F0008CC0000201C2B0000244D000882
:106F1000000000000000000000000000C8000000A9
:106F20000000000000000000000000000000000061
:106F30000000000000000000000000000000000051
:106F40000000000000000000000000000000000041
:106F50000000000001000000100000000000000020
:106F600000A24A0400000000000000000000000031
:106F70000000000000000000000000000000000011
:106F8000AAAAAAAA00000000000000000000000059
:106F900000000000000000000000000000000000F1
:106FA00000000000000000000000000000000000E1
:106FB00000000000000000000000000000000000D1
:106FC00000000000000000000000000000000000C1
:0C6FD000000000000000000000000000B5
:04000005080018EDEA
:00000001FF
